{
	"data": {
		"bytecode": {
			"linkReferences": {},
			"object": "608060405234801561000f575f80fd5b506040516113f13803806113f1833981810160405281019061003191906100d5565b8060025f6101000a81548173ffffffffffffffffffffffffffffffffffffffff021916908373ffffffffffffffffffffffffffffffffffffffff16021790555050610100565b5f80fd5b5f73ffffffffffffffffffffffffffffffffffffffff82169050919050565b5f6100a48261007b565b9050919050565b6100b48161009a565b81146100be575f80fd5b50565b5f815190506100cf816100ab565b92915050565b5f602082840312156100ea576100e9610077565b5b5f6100f7848285016100c1565b91505092915050565b6112e48061010d5f395ff3fe608060405260043610610054575f3560e01c8063180aedf3146100585780635713b2b6146100995780635c1615f3146100c1578063b0c2aa5e146100e9578063c949756c14610113578063e2fdcc171461012f575b5f80fd5b348015610063575f80fd5b5061007e6004803603810190610079919061091d565b610159565b60405161009096959493929190610a20565b60405180910390f35b3480156100a4575f80fd5b506100bf60048036038101906100ba9190610bb2565b61026f565b005b3480156100cc575f80fd5b506100e760048036038101906100e2919061091d565b610423565b005b3480156100f4575f80fd5b506100fd61064a565b60405161010a9190610c0c565b60405180910390f35b61012d60048036038101906101289190610c4f565b61064f565b005b34801561013a575f80fd5b506101436108b4565b6040516101509190610ce8565b60405180910390f35b6001602052805f5260405f205f91509050805f01805461017890610d2e565b80601f01602080910402602001604051908101604052809291908181526020018280546101a490610d2e565b80156101ef5780601f106101c6576101008083540402835291602001916101ef565b820191905f5260205f20905b8154815290600101906020018083116101d257829003601f168201915b505050505090806001015490806002015f9054906101000a900473ffffffffffffffffffffffffffffffffffffffff1690806003015f9054906101000a900473ffffffffffffffffffffffffffffffffffffffff16908060030160149054906101000a900460ff16908060030160159054906101000a900460ff16905086565b6040518060c001604052808381526020018281526020013373ffffffffffffffffffffffffffffffffffffffff1681526020015f73ffffffffffffffffffffffffffffffffffffffff1681526020015f151581526020015f151581525060015f805481526020019081526020015f205f820151815f0190816102f19190610ef2565b50602082015181600101556040820151816002015f6101000a81548173ffffffffffffffffffffffffffffffffffffffff021916908373ffffffffffffffffffffffffffffffffffffffff1602179055506060820151816003015f6101000a81548173ffffffffffffffffffffffffffffffffffffffff021916908373ffffffffffffffffffffffffffffffffffffffff16021790555060808201518160030160146101000a81548160ff02191690831515021790555060a08201518160030160156101000a81548160ff0219169083151502179055509050507fe2664ff85acbefce4793e83fe4a10e88680b3172a3e401c7946d7cfb8f19ebdb5f543384846040516104019493929190610fc1565b60405180910390a15f8081548092919061041a90611038565b91905055505050565b5f60015f8381526020019081526020015f209050806002015f9054906101000a900473ffffffffffffffffffffffffffffffffffffffff1673ffffffffffffffffffffffffffffffffffffffff163373ffffffffffffffffffffffffffffffffffffffff16146104c8576040517f08c379a00000000000000000000000000000000000000000000000000000000081526004016104bf906110c9565b60405180910390fd5b8060030160149054906101000a900460ff16610519576040517f08c379a000000000000000000000000000000000000000000000000000000000815260040161051090611131565b60405180910390fd5b8060030160159054906101000a900460ff161561056b576040517f08c379a000000000000000000000000000000000000000000000000000000000815260040161056290611199565b60405180910390fd5b60018160030160156101000a81548160ff02191690831515021790555060025f9054906101000a900473ffffffffffffffffffffffffffffffffffffffff1673ffffffffffffffffffffffffffffffffffffffff16634d68282f836040518263ffffffff1660e01b81526004016105e29190610c0c565b5f604051808303815f87803b1580156105f9575f80fd5b505af115801561060b573d5f803e3d5ffd5b505050507f02244c8529cb95e213ee542e76e7776342b3dabd10203d01472bbf4441be89298260405161063e9190610c0c565b60405180910390a15050565b5f5481565b5f60015f8481526020019081526020015f209050806002015f9054906101000a900473ffffffffffffffffffffffffffffffffffffffff1673ffffffffffffffffffffffffffffffffffffffff163373ffffffffffffffffffffffffffffffffffffffff16146106f4576040517f08c379a00000000000000000000000000000000000000000000000000000000081526004016106eb906110c9565b60405180910390fd5b8060030160149054906101000a900460ff1615610746576040517f08c379a000000000000000000000000000000000000000000000000000000000815260040161073d90611201565b60405180910390fd5b8060010154341461078c576040517f08c379a000000000000000000000000000000000000000000000000000000000815260040161078390611269565b60405180910390fd5b81816003015f6101000a81548173ffffffffffffffffffffffffffffffffffffffff021916908373ffffffffffffffffffffffffffffffffffffffff16021790555060018160030160146101000a81548160ff02191690831515021790555060025f9054906101000a900473ffffffffffffffffffffffffffffffffffffffff1673ffffffffffffffffffffffffffffffffffffffff1663dbcd72f03485856040518463ffffffff1660e01b8152600401610848929190611287565b5f604051808303818588803b15801561085f575f80fd5b505af1158015610871573d5f803e3d5ffd5b50505050507f3738a681a43a0b6a554742a08bae57e0215e8a774217dc2e7de6c9411b6d0ddc83836040516108a7929190611287565b60405180910390a1505050565b60025f9054906101000a900473ffffffffffffffffffffffffffffffffffffffff1681565b5f604051905090565b5f80fd5b5f80fd5b5f819050919050565b6108fc816108ea565b8114610906575f80fd5b50565b5f81359050610917816108f3565b92915050565b5f60208284031215610932576109316108e2565b5b5f61093f84828501610909565b91505092915050565b5f81519050919050565b5f82825260208201905092915050565b8281835e5f83830152505050565b5f601f19601f8301169050919050565b5f61098a82610948565b6109948185610952565b93506109a4818560208601610962565b6109ad81610970565b840191505092915050565b6109c1816108ea565b82525050565b5f73ffffffffffffffffffffffffffffffffffffffff82169050919050565b5f6109f0826109c7565b9050919050565b610a00816109e6565b82525050565b5f8115159050919050565b610a1a81610a06565b82525050565b5f60c0820190508181035f830152610a388189610980565b9050610a4760208301886109b8565b610a5460408301876109f7565b610a6160608301866109f7565b610a6e6080830185610a11565b610a7b60a0830184610a11565b979650505050505050565b5f80fd5b5f80fd5b7f4e487b71000000000000000000000000000000000000000000000000000000005f52604160045260245ffd5b610ac482610970565b810181811067ffffffffffffffff82111715610ae357610ae2610a8e565b5b80604052505050565b5f610af56108d9565b9050610b018282610abb565b919050565b5f67ffffffffffffffff821115610b2057610b1f610a8e565b5b610b2982610970565b9050602081019050919050565b828183375f83830152505050565b5f610b56610b5184610b06565b610aec565b905082815260208101848484011115610b7257610b71610a8a565b5b610b7d848285610b36565b509392505050565b5f82601f830112610b9957610b98610a86565b5b8135610ba9848260208601610b44565b91505092915050565b5f8060408385031215610bc857610bc76108e2565b5b5f83013567ffffffffffffffff811115610be557610be46108e6565b5b610bf185828601610b85565b9250506020610c0285828601610909565b9150509250929050565b5f602082019050610c1f5f8301846109b8565b92915050565b610c2e816109e6565b8114610c38575f80fd5b50565b5f81359050610c4981610c25565b92915050565b5f8060408385031215610c6557610c646108e2565b5b5f610c7285828601610909565b9250506020610c8385828601610c3b565b9150509250929050565b5f819050919050565b5f610cb0610cab610ca6846109c7565b610c8d565b6109c7565b9050919050565b5f610cc182610c96565b9050919050565b5f610cd282610cb7565b9050919050565b610ce281610cc8565b82525050565b5f602082019050610cfb5f830184610cd9565b92915050565b7f4e487b71000000000000000000000000000000000000000000000000000000005f52602260045260245ffd5b5f6002820490506001821680610d4557607f821691505b602082108103610d5857610d57610d01565b5b50919050565b5f819050815f5260205f209050919050565b5f6020601f8301049050919050565b5f82821b905092915050565b5f60088302610dba7fffffffffffffffffffffffffffffffffffffffffffffffffffffffffffffffff82610d7f565b610dc48683610d7f565b95508019841693508086168417925050509392505050565b5f610df6610df1610dec846108ea565b610c8d565b6108ea565b9050919050565b5f819050919050565b610e0f83610ddc565b610e23610e1b82610dfd565b848454610d8b565b825550505050565b5f90565b610e37610e2b565b610e42818484610e06565b505050565b5b81811015610e6557610e5a5f82610e2f565b600181019050610e48565b5050565b601f821115610eaa57610e7b81610d5e565b610e8484610d70565b81016020851015610e93578190505b610ea7610e9f85610d70565b830182610e47565b50505b505050565b5f82821c905092915050565b5f610eca5f1984600802610eaf565b1980831691505092915050565b5f610ee28383610ebb565b9150826002028217905092915050565b610efb82610948565b67ffffffffffffffff811115610f1457610f13610a8e565b5b610f1e8254610d2e565b610f29828285610e69565b5f60209050601f831160018114610f5a575f8415610f48578287015190505b610f528582610ed7565b865550610fb9565b601f198416610f6886610d5e565b5f5b82811015610f8f57848901518255600182019150602085019450602081019050610f6a565b86831015610fac5784890151610fa8601f891682610ebb565b8355505b6001600288020188555050505b505050505050565b5f608082019050610fd45f8301876109b8565b610fe160208301866109f7565b8181036040830152610ff38185610980565b905061100260608301846109b8565b95945050505050565b7f4e487b71000000000000000000000000000000000000000000000000000000005f52601160045260245ffd5b5f611042826108ea565b91507fffffffffffffffffffffffffffffffffffffffffffffffffffffffffffffffff82036110745761107361100b565b5b600182019050919050565b7f4f6e6c7920636c69656e740000000000000000000000000000000000000000005f82015250565b5f6110b3600b83610952565b91506110be8261107f565b602082019050919050565b5f6020820190508181035f8301526110e0816110a7565b9050919050565b7f4e6f742061737369676e656400000000000000000000000000000000000000005f82015250565b5f61111b600c83610952565b9150611126826110e7565b602082019050919050565b5f6020820190508181035f8301526111488161110f565b9050919050565b7f416c726561647920636f6d706c657465640000000000000000000000000000005f82015250565b5f611183601183610952565b915061118e8261114f565b602082019050919050565b5f6020820190508181035f8301526111b081611177565b9050919050565b7f416c72656164792061737369676e6564000000000000000000000000000000005f82015250565b5f6111eb601083610952565b91506111f6826111b7565b602082019050919050565b5f6020820190508181035f830152611218816111df565b9050919050565b7f496e636f727265637420616d6f756e74000000000000000000000000000000005f82015250565b5f611253601083610952565b915061125e8261121f565b602082019050919050565b5f6020820190508181035f83015261128081611247565b9050919050565b5f60408201905061129a5f8301856109b8565b6112a760208301846109f7565b939250505056fea2646970667358221220932d34fecdb5827f104faa55f8f94e730ad658ae0a7e0ad5379b1d2e67bcda6764736f6c634300081a0033",
			"opcodes": "PUSH1 0x80 PUSH1 0x40 MSTORE CALLVALUE DUP1 ISZERO PUSH2 0xF JUMPI PUSH0 DUP1 REVERT JUMPDEST POP PUSH1 0x40 MLOAD PUSH2 0x13F1 CODESIZE SUB DUP1 PUSH2 0x13F1 DUP4 CODECOPY DUP2 DUP2 ADD PUSH1 0x40 MSTORE DUP2 ADD SWAP1 PUSH2 0x31 SWAP2 SWAP1 PUSH2 0xD5 JUMP JUMPDEST DUP1 PUSH1 0x2 PUSH0 PUSH2 0x100 EXP DUP2 SLOAD DUP2 PUSH20 0xFFFFFFFFFFFFFFFFFFFFFFFFFFFFFFFFFFFFFFFF MUL NOT AND SWAP1 DUP4 PUSH20 0xFFFFFFFFFFFFFFFFFFFFFFFFFFFFFFFFFFFFFFFF AND MUL OR SWAP1 SSTORE POP POP PUSH2 0x100 JUMP JUMPDEST PUSH0 DUP1 REVERT JUMPDEST PUSH0 PUSH20 0xFFFFFFFFFFFFFFFFFFFFFFFFFFFFFFFFFFFFFFFF DUP3 AND SWAP1 POP SWAP2 SWAP1 POP JUMP JUMPDEST PUSH0 PUSH2 0xA4 DUP3 PUSH2 0x7B JUMP JUMPDEST SWAP1 POP SWAP2 SWAP1 POP JUMP JUMPDEST PUSH2 0xB4 DUP2 PUSH2 0x9A JUMP JUMPDEST DUP2 EQ PUSH2 0xBE JUMPI PUSH0 DUP1 REVERT JUMPDEST POP JUMP JUMPDEST PUSH0 DUP2 MLOAD SWAP1 POP PUSH2 0xCF DUP2 PUSH2 0xAB JUMP JUMPDEST SWAP3 SWAP2 POP POP JUMP JUMPDEST PUSH0 PUSH1 0x20 DUP3 DUP5 SUB SLT ISZERO PUSH2 0xEA JUMPI PUSH2 0xE9 PUSH2 0x77 JUMP JUMPDEST JUMPDEST PUSH0 PUSH2 0xF7 DUP5 DUP3 DUP6 ADD PUSH2 0xC1 JUMP JUMPDEST SWAP2 POP POP SWAP3 SWAP2 POP POP JUMP JUMPDEST PUSH2 0x12E4 DUP1 PUSH2 0x10D PUSH0 CODECOPY PUSH0 RETURN INVALID PUSH1 0x80 PUSH1 0x40 MSTORE PUSH1 0x4 CALLDATASIZE LT PUSH2 0x54 JUMPI PUSH0 CALLDATALOAD PUSH1 0xE0 SHR DUP1 PUSH4 0x180AEDF3 EQ PUSH2 0x58 JUMPI DUP1 PUSH4 0x5713B2B6 EQ PUSH2 0x99 JUMPI DUP1 PUSH4 0x5C1615F3 EQ PUSH2 0xC1 JUMPI DUP1 PUSH4 0xB0C2AA5E EQ PUSH2 0xE9 JUMPI DUP1 PUSH4 0xC949756C EQ PUSH2 0x113 JUMPI DUP1 PUSH4 0xE2FDCC17 EQ PUSH2 0x12F JUMPI JUMPDEST PUSH0 DUP1 REVERT JUMPDEST CALLVALUE DUP1 ISZERO PUSH2 0x63 JUMPI PUSH0 DUP1 REVERT JUMPDEST POP PUSH2 0x7E PUSH1 0x4 DUP1 CALLDATASIZE SUB DUP2 ADD SWAP1 PUSH2 0x79 SWAP2 SWAP1 PUSH2 0x91D JUMP JUMPDEST PUSH2 0x159 JUMP JUMPDEST PUSH1 0x40 MLOAD PUSH2 0x90 SWAP7 SWAP6 SWAP5 SWAP4 SWAP3 SWAP2 SWAP1 PUSH2 0xA20 JUMP JUMPDEST PUSH1 0x40 MLOAD DUP1 SWAP2 SUB SWAP1 RETURN JUMPDEST CALLVALUE DUP1 ISZERO PUSH2 0xA4 JUMPI PUSH0 DUP1 REVERT JUMPDEST POP PUSH2 0xBF PUSH1 0x4 DUP1 CALLDATASIZE SUB DUP2 ADD SWAP1 PUSH2 0xBA SWAP2 SWAP1 PUSH2 0xBB2 JUMP JUMPDEST PUSH2 0x26F JUMP JUMPDEST STOP JUMPDEST CALLVALUE DUP1 ISZERO PUSH2 0xCC JUMPI PUSH0 DUP1 REVERT JUMPDEST POP PUSH2 0xE7 PUSH1 0x4 DUP1 CALLDATASIZE SUB DUP2 ADD SWAP1 PUSH2 0xE2 SWAP2 SWAP1 PUSH2 0x91D JUMP JUMPDEST PUSH2 0x423 JUMP JUMPDEST STOP JUMPDEST CALLVALUE DUP1 ISZERO PUSH2 0xF4 JUMPI PUSH0 DUP1 REVERT JUMPDEST POP PUSH2 0xFD PUSH2 0x64A JUMP JUMPDEST PUSH1 0x40 MLOAD PUSH2 0x10A SWAP2 SWAP1 PUSH2 0xC0C JUMP JUMPDEST PUSH1 0x40 MLOAD DUP1 SWAP2 SUB SWAP1 RETURN JUMPDEST PUSH2 0x12D PUSH1 0x4 DUP1 CALLDATASIZE SUB DUP2 ADD SWAP1 PUSH2 0x128 SWAP2 SWAP1 PUSH2 0xC4F JUMP JUMPDEST PUSH2 0x64F JUMP JUMPDEST STOP JUMPDEST CALLVALUE DUP1 ISZERO PUSH2 0x13A JUMPI PUSH0 DUP1 REVERT JUMPDEST POP PUSH2 0x143 PUSH2 0x8B4 JUMP JUMPDEST PUSH1 0x40 MLOAD PUSH2 0x150 SWAP2 SWAP1 PUSH2 0xCE8 JUMP JUMPDEST PUSH1 0x40 MLOAD DUP1 SWAP2 SUB SWAP1 RETURN JUMPDEST PUSH1 0x1 PUSH1 0x20 MSTORE DUP1 PUSH0 MSTORE PUSH1 0x40 PUSH0 KECCAK256 PUSH0 SWAP2 POP SWAP1 POP DUP1 PUSH0 ADD DUP1 SLOAD PUSH2 0x178 SWAP1 PUSH2 0xD2E JUMP JUMPDEST DUP1 PUSH1 0x1F ADD PUSH1 0x20 DUP1 SWAP2 DIV MUL PUSH1 0x20 ADD PUSH1 0x40 MLOAD SWAP1 DUP2 ADD PUSH1 0x40 MSTORE DUP1 SWAP3 SWAP2 SWAP1 DUP2 DUP2 MSTORE PUSH1 0x20 ADD DUP3 DUP1 SLOAD PUSH2 0x1A4 SWAP1 PUSH2 0xD2E JUMP JUMPDEST DUP1 ISZERO PUSH2 0x1EF JUMPI DUP1 PUSH1 0x1F LT PUSH2 0x1C6 JUMPI PUSH2 0x100 DUP1 DUP4 SLOAD DIV MUL DUP4 MSTORE SWAP2 PUSH1 0x20 ADD SWAP2 PUSH2 0x1EF JUMP JUMPDEST DUP3 ADD SWAP2 SWAP1 PUSH0 MSTORE PUSH1 0x20 PUSH0 KECCAK256 SWAP1 JUMPDEST DUP2 SLOAD DUP2 MSTORE SWAP1 PUSH1 0x1 ADD SWAP1 PUSH1 0x20 ADD DUP1 DUP4 GT PUSH2 0x1D2 JUMPI DUP3 SWAP1 SUB PUSH1 0x1F AND DUP3 ADD SWAP2 JUMPDEST POP POP POP POP POP SWAP1 DUP1 PUSH1 0x1 ADD SLOAD SWAP1 DUP1 PUSH1 0x2 ADD PUSH0 SWAP1 SLOAD SWAP1 PUSH2 0x100 EXP SWAP1 DIV PUSH20 0xFFFFFFFFFFFFFFFFFFFFFFFFFFFFFFFFFFFFFFFF AND SWAP1 DUP1 PUSH1 0x3 ADD PUSH0 SWAP1 SLOAD SWAP1 PUSH2 0x100 EXP SWAP1 DIV PUSH20 0xFFFFFFFFFFFFFFFFFFFFFFFFFFFFFFFFFFFFFFFF AND SWAP1 DUP1 PUSH1 0x3 ADD PUSH1 0x14 SWAP1 SLOAD SWAP1 PUSH2 0x100 EXP SWAP1 DIV PUSH1 0xFF AND SWAP1 DUP1 PUSH1 0x3 ADD PUSH1 0x15 SWAP1 SLOAD SWAP1 PUSH2 0x100 EXP SWAP1 DIV PUSH1 0xFF AND SWAP1 POP DUP7 JUMP JUMPDEST PUSH1 0x40 MLOAD DUP1 PUSH1 0xC0 ADD PUSH1 0x40 MSTORE DUP1 DUP4 DUP2 MSTORE PUSH1 0x20 ADD DUP3 DUP2 MSTORE PUSH1 0x20 ADD CALLER PUSH20 0xFFFFFFFFFFFFFFFFFFFFFFFFFFFFFFFFFFFFFFFF AND DUP2 MSTORE PUSH1 0x20 ADD PUSH0 PUSH20 0xFFFFFFFFFFFFFFFFFFFFFFFFFFFFFFFFFFFFFFFF AND DUP2 MSTORE PUSH1 0x20 ADD PUSH0 ISZERO ISZERO DUP2 MSTORE PUSH1 0x20 ADD PUSH0 ISZERO ISZERO DUP2 MSTORE POP PUSH1 0x1 PUSH0 DUP1 SLOAD DUP2 MSTORE PUSH1 0x20 ADD SWAP1 DUP2 MSTORE PUSH1 0x20 ADD PUSH0 KECCAK256 PUSH0 DUP3 ADD MLOAD DUP2 PUSH0 ADD SWAP1 DUP2 PUSH2 0x2F1 SWAP2 SWAP1 PUSH2 0xEF2 JUMP JUMPDEST POP PUSH1 0x20 DUP3 ADD MLOAD DUP2 PUSH1 0x1 ADD SSTORE PUSH1 0x40 DUP3 ADD MLOAD DUP2 PUSH1 0x2 ADD PUSH0 PUSH2 0x100 EXP DUP2 SLOAD DUP2 PUSH20 0xFFFFFFFFFFFFFFFFFFFFFFFFFFFFFFFFFFFFFFFF MUL NOT AND SWAP1 DUP4 PUSH20 0xFFFFFFFFFFFFFFFFFFFFFFFFFFFFFFFFFFFFFFFF AND MUL OR SWAP1 SSTORE POP PUSH1 0x60 DUP3 ADD MLOAD DUP2 PUSH1 0x3 ADD PUSH0 PUSH2 0x100 EXP DUP2 SLOAD DUP2 PUSH20 0xFFFFFFFFFFFFFFFFFFFFFFFFFFFFFFFFFFFFFFFF MUL NOT AND SWAP1 DUP4 PUSH20 0xFFFFFFFFFFFFFFFFFFFFFFFFFFFFFFFFFFFFFFFF AND MUL OR SWAP1 SSTORE POP PUSH1 0x80 DUP3 ADD MLOAD DUP2 PUSH1 0x3 ADD PUSH1 0x14 PUSH2 0x100 EXP DUP2 SLOAD DUP2 PUSH1 0xFF MUL NOT AND SWAP1 DUP4 ISZERO ISZERO MUL OR SWAP1 SSTORE POP PUSH1 0xA0 DUP3 ADD MLOAD DUP2 PUSH1 0x3 ADD PUSH1 0x15 PUSH2 0x100 EXP DUP2 SLOAD DUP2 PUSH1 0xFF MUL NOT AND SWAP1 DUP4 ISZERO ISZERO MUL OR SWAP1 SSTORE POP SWAP1 POP POP PUSH32 0xE2664FF85ACBEFCE4793E83FE4A10E88680B3172A3E401C7946D7CFB8F19EBDB PUSH0 SLOAD CALLER DUP5 DUP5 PUSH1 0x40 MLOAD PUSH2 0x401 SWAP5 SWAP4 SWAP3 SWAP2 SWAP1 PUSH2 0xFC1 JUMP JUMPDEST PUSH1 0x40 MLOAD DUP1 SWAP2 SUB SWAP1 LOG1 PUSH0 DUP1 DUP2 SLOAD DUP1 SWAP3 SWAP2 SWAP1 PUSH2 0x41A SWAP1 PUSH2 0x1038 JUMP JUMPDEST SWAP2 SWAP1 POP SSTORE POP POP POP JUMP JUMPDEST PUSH0 PUSH1 0x1 PUSH0 DUP4 DUP2 MSTORE PUSH1 0x20 ADD SWAP1 DUP2 MSTORE PUSH1 0x20 ADD PUSH0 KECCAK256 SWAP1 POP DUP1 PUSH1 0x2 ADD PUSH0 SWAP1 SLOAD SWAP1 PUSH2 0x100 EXP SWAP1 DIV PUSH20 0xFFFFFFFFFFFFFFFFFFFFFFFFFFFFFFFFFFFFFFFF AND PUSH20 0xFFFFFFFFFFFFFFFFFFFFFFFFFFFFFFFFFFFFFFFF AND CALLER PUSH20 0xFFFFFFFFFFFFFFFFFFFFFFFFFFFFFFFFFFFFFFFF AND EQ PUSH2 0x4C8 JUMPI PUSH1 0x40 MLOAD PUSH32 0x8C379A000000000000000000000000000000000000000000000000000000000 DUP2 MSTORE PUSH1 0x4 ADD PUSH2 0x4BF SWAP1 PUSH2 0x10C9 JUMP JUMPDEST PUSH1 0x40 MLOAD DUP1 SWAP2 SUB SWAP1 REVERT JUMPDEST DUP1 PUSH1 0x3 ADD PUSH1 0x14 SWAP1 SLOAD SWAP1 PUSH2 0x100 EXP SWAP1 DIV PUSH1 0xFF AND PUSH2 0x519 JUMPI PUSH1 0x40 MLOAD PUSH32 0x8C379A000000000000000000000000000000000000000000000000000000000 DUP2 MSTORE PUSH1 0x4 ADD PUSH2 0x510 SWAP1 PUSH2 0x1131 JUMP JUMPDEST PUSH1 0x40 MLOAD DUP1 SWAP2 SUB SWAP1 REVERT JUMPDEST DUP1 PUSH1 0x3 ADD PUSH1 0x15 SWAP1 SLOAD SWAP1 PUSH2 0x100 EXP SWAP1 DIV PUSH1 0xFF AND ISZERO PUSH2 0x56B JUMPI PUSH1 0x40 MLOAD PUSH32 0x8C379A000000000000000000000000000000000000000000000000000000000 DUP2 MSTORE PUSH1 0x4 ADD PUSH2 0x562 SWAP1 PUSH2 0x1199 JUMP JUMPDEST PUSH1 0x40 MLOAD DUP1 SWAP2 SUB SWAP1 REVERT JUMPDEST PUSH1 0x1 DUP2 PUSH1 0x3 ADD PUSH1 0x15 PUSH2 0x100 EXP DUP2 SLOAD DUP2 PUSH1 0xFF MUL NOT AND SWAP1 DUP4 ISZERO ISZERO MUL OR SWAP1 SSTORE POP PUSH1 0x2 PUSH0 SWAP1 SLOAD SWAP1 PUSH2 0x100 EXP SWAP1 DIV PUSH20 0xFFFFFFFFFFFFFFFFFFFFFFFFFFFFFFFFFFFFFFFF AND PUSH20 0xFFFFFFFFFFFFFFFFFFFFFFFFFFFFFFFFFFFFFFFF AND PUSH4 0x4D68282F DUP4 PUSH1 0x40 MLOAD DUP3 PUSH4 0xFFFFFFFF AND PUSH1 0xE0 SHL DUP2 MSTORE PUSH1 0x4 ADD PUSH2 0x5E2 SWAP2 SWAP1 PUSH2 0xC0C JUMP JUMPDEST PUSH0 PUSH1 0x40 MLOAD DUP1 DUP4 SUB DUP2 PUSH0 DUP8 DUP1 EXTCODESIZE ISZERO DUP1 ISZERO PUSH2 0x5F9 JUMPI PUSH0 DUP1 REVERT JUMPDEST POP GAS CALL ISZERO DUP1 ISZERO PUSH2 0x60B JUMPI RETURNDATASIZE PUSH0 DUP1 RETURNDATACOPY RETURNDATASIZE PUSH0 REVERT JUMPDEST POP POP POP POP PUSH32 0x2244C8529CB95E213EE542E76E7776342B3DABD10203D01472BBF4441BE8929 DUP3 PUSH1 0x40 MLOAD PUSH2 0x63E SWAP2 SWAP1 PUSH2 0xC0C JUMP JUMPDEST PUSH1 0x40 MLOAD DUP1 SWAP2 SUB SWAP1 LOG1 POP POP JUMP JUMPDEST PUSH0 SLOAD DUP2 JUMP JUMPDEST PUSH0 PUSH1 0x1 PUSH0 DUP5 DUP2 MSTORE PUSH1 0x20 ADD SWAP1 DUP2 MSTORE PUSH1 0x20 ADD PUSH0 KECCAK256 SWAP1 POP DUP1 PUSH1 0x2 ADD PUSH0 SWAP1 SLOAD SWAP1 PUSH2 0x100 EXP SWAP1 DIV PUSH20 0xFFFFFFFFFFFFFFFFFFFFFFFFFFFFFFFFFFFFFFFF AND PUSH20 0xFFFFFFFFFFFFFFFFFFFFFFFFFFFFFFFFFFFFFFFF AND CALLER PUSH20 0xFFFFFFFFFFFFFFFFFFFFFFFFFFFFFFFFFFFFFFFF AND EQ PUSH2 0x6F4 JUMPI PUSH1 0x40 MLOAD PUSH32 0x8C379A000000000000000000000000000000000000000000000000000000000 DUP2 MSTORE PUSH1 0x4 ADD PUSH2 0x6EB SWAP1 PUSH2 0x10C9 JUMP JUMPDEST PUSH1 0x40 MLOAD DUP1 SWAP2 SUB SWAP1 REVERT JUMPDEST DUP1 PUSH1 0x3 ADD PUSH1 0x14 SWAP1 SLOAD SWAP1 PUSH2 0x100 EXP SWAP1 DIV PUSH1 0xFF AND ISZERO PUSH2 0x746 JUMPI PUSH1 0x40 MLOAD PUSH32 0x8C379A000000000000000000000000000000000000000000000000000000000 DUP2 MSTORE PUSH1 0x4 ADD PUSH2 0x73D SWAP1 PUSH2 0x1201 JUMP JUMPDEST PUSH1 0x40 MLOAD DUP1 SWAP2 SUB SWAP1 REVERT JUMPDEST DUP1 PUSH1 0x1 ADD SLOAD CALLVALUE EQ PUSH2 0x78C JUMPI PUSH1 0x40 MLOAD PUSH32 0x8C379A000000000000000000000000000000000000000000000000000000000 DUP2 MSTORE PUSH1 0x4 ADD PUSH2 0x783 SWAP1 PUSH2 0x1269 JUMP JUMPDEST PUSH1 0x40 MLOAD DUP1 SWAP2 SUB SWAP1 REVERT JUMPDEST DUP2 DUP2 PUSH1 0x3 ADD PUSH0 PUSH2 0x100 EXP DUP2 SLOAD DUP2 PUSH20 0xFFFFFFFFFFFFFFFFFFFFFFFFFFFFFFFFFFFFFFFF MUL NOT AND SWAP1 DUP4 PUSH20 0xFFFFFFFFFFFFFFFFFFFFFFFFFFFFFFFFFFFFFFFF AND MUL OR SWAP1 SSTORE POP PUSH1 0x1 DUP2 PUSH1 0x3 ADD PUSH1 0x14 PUSH2 0x100 EXP DUP2 SLOAD DUP2 PUSH1 0xFF MUL NOT AND SWAP1 DUP4 ISZERO ISZERO MUL OR SWAP1 SSTORE POP PUSH1 0x2 PUSH0 SWAP1 SLOAD SWAP1 PUSH2 0x100 EXP SWAP1 DIV PUSH20 0xFFFFFFFFFFFFFFFFFFFFFFFFFFFFFFFFFFFFFFFF AND PUSH20 0xFFFFFFFFFFFFFFFFFFFFFFFFFFFFFFFFFFFFFFFF AND PUSH4 0xDBCD72F0 CALLVALUE DUP6 DUP6 PUSH1 0x40 MLOAD DUP5 PUSH4 0xFFFFFFFF AND PUSH1 0xE0 SHL DUP2 MSTORE PUSH1 0x4 ADD PUSH2 0x848 SWAP3 SWAP2 SWAP1 PUSH2 0x1287 JUMP JUMPDEST PUSH0 PUSH1 0x40 MLOAD DUP1 DUP4 SUB DUP2 DUP6 DUP9 DUP1 EXTCODESIZE ISZERO DUP1 ISZERO PUSH2 0x85F JUMPI PUSH0 DUP1 REVERT JUMPDEST POP GAS CALL ISZERO DUP1 ISZERO PUSH2 0x871 JUMPI RETURNDATASIZE PUSH0 DUP1 RETURNDATACOPY RETURNDATASIZE PUSH0 REVERT JUMPDEST POP POP POP POP POP PUSH32 0x3738A681A43A0B6A554742A08BAE57E0215E8A774217DC2E7DE6C9411B6D0DDC DUP4 DUP4 PUSH1 0x40 MLOAD PUSH2 0x8A7 SWAP3 SWAP2 SWAP1 PUSH2 0x1287 JUMP JUMPDEST PUSH1 0x40 MLOAD DUP1 SWAP2 SUB SWAP1 LOG1 POP POP POP JUMP JUMPDEST PUSH1 0x2 PUSH0 SWAP1 SLOAD SWAP1 PUSH2 0x100 EXP SWAP1 DIV PUSH20 0xFFFFFFFFFFFFFFFFFFFFFFFFFFFFFFFFFFFFFFFF AND DUP2 JUMP JUMPDEST PUSH0 PUSH1 0x40 MLOAD SWAP1 POP SWAP1 JUMP JUMPDEST PUSH0 DUP1 REVERT JUMPDEST PUSH0 DUP1 REVERT JUMPDEST PUSH0 DUP2 SWAP1 POP SWAP2 SWAP1 POP JUMP JUMPDEST PUSH2 0x8FC DUP2 PUSH2 0x8EA JUMP JUMPDEST DUP2 EQ PUSH2 0x906 JUMPI PUSH0 DUP1 REVERT JUMPDEST POP JUMP JUMPDEST PUSH0 DUP2 CALLDATALOAD SWAP1 POP PUSH2 0x917 DUP2 PUSH2 0x8F3 JUMP JUMPDEST SWAP3 SWAP2 POP POP JUMP JUMPDEST PUSH0 PUSH1 0x20 DUP3 DUP5 SUB SLT ISZERO PUSH2 0x932 JUMPI PUSH2 0x931 PUSH2 0x8E2 JUMP JUMPDEST JUMPDEST PUSH0 PUSH2 0x93F DUP5 DUP3 DUP6 ADD PUSH2 0x909 JUMP JUMPDEST SWAP2 POP POP SWAP3 SWAP2 POP POP JUMP JUMPDEST PUSH0 DUP2 MLOAD SWAP1 POP SWAP2 SWAP1 POP JUMP JUMPDEST PUSH0 DUP3 DUP3 MSTORE PUSH1 0x20 DUP3 ADD SWAP1 POP SWAP3 SWAP2 POP POP JUMP JUMPDEST DUP3 DUP2 DUP4 MCOPY PUSH0 DUP4 DUP4 ADD MSTORE POP POP POP JUMP JUMPDEST PUSH0 PUSH1 0x1F NOT PUSH1 0x1F DUP4 ADD AND SWAP1 POP SWAP2 SWAP1 POP JUMP JUMPDEST PUSH0 PUSH2 0x98A DUP3 PUSH2 0x948 JUMP JUMPDEST PUSH2 0x994 DUP2 DUP6 PUSH2 0x952 JUMP JUMPDEST SWAP4 POP PUSH2 0x9A4 DUP2 DUP6 PUSH1 0x20 DUP7 ADD PUSH2 0x962 JUMP JUMPDEST PUSH2 0x9AD DUP2 PUSH2 0x970 JUMP JUMPDEST DUP5 ADD SWAP2 POP POP SWAP3 SWAP2 POP POP JUMP JUMPDEST PUSH2 0x9C1 DUP2 PUSH2 0x8EA JUMP JUMPDEST DUP3 MSTORE POP POP JUMP JUMPDEST PUSH0 PUSH20 0xFFFFFFFFFFFFFFFFFFFFFFFFFFFFFFFFFFFFFFFF DUP3 AND SWAP1 POP SWAP2 SWAP1 POP JUMP JUMPDEST PUSH0 PUSH2 0x9F0 DUP3 PUSH2 0x9C7 JUMP JUMPDEST SWAP1 POP SWAP2 SWAP1 POP JUMP JUMPDEST PUSH2 0xA00 DUP2 PUSH2 0x9E6 JUMP JUMPDEST DUP3 MSTORE POP POP JUMP JUMPDEST PUSH0 DUP2 ISZERO ISZERO SWAP1 POP SWAP2 SWAP1 POP JUMP JUMPDEST PUSH2 0xA1A DUP2 PUSH2 0xA06 JUMP JUMPDEST DUP3 MSTORE POP POP JUMP JUMPDEST PUSH0 PUSH1 0xC0 DUP3 ADD SWAP1 POP DUP2 DUP2 SUB PUSH0 DUP4 ADD MSTORE PUSH2 0xA38 DUP2 DUP10 PUSH2 0x980 JUMP JUMPDEST SWAP1 POP PUSH2 0xA47 PUSH1 0x20 DUP4 ADD DUP9 PUSH2 0x9B8 JUMP JUMPDEST PUSH2 0xA54 PUSH1 0x40 DUP4 ADD DUP8 PUSH2 0x9F7 JUMP JUMPDEST PUSH2 0xA61 PUSH1 0x60 DUP4 ADD DUP7 PUSH2 0x9F7 JUMP JUMPDEST PUSH2 0xA6E PUSH1 0x80 DUP4 ADD DUP6 PUSH2 0xA11 JUMP JUMPDEST PUSH2 0xA7B PUSH1 0xA0 DUP4 ADD DUP5 PUSH2 0xA11 JUMP JUMPDEST SWAP8 SWAP7 POP POP POP POP POP POP POP JUMP JUMPDEST PUSH0 DUP1 REVERT JUMPDEST PUSH0 DUP1 REVERT JUMPDEST PUSH32 0x4E487B7100000000000000000000000000000000000000000000000000000000 PUSH0 MSTORE PUSH1 0x41 PUSH1 0x4 MSTORE PUSH1 0x24 PUSH0 REVERT JUMPDEST PUSH2 0xAC4 DUP3 PUSH2 0x970 JUMP JUMPDEST DUP2 ADD DUP2 DUP2 LT PUSH8 0xFFFFFFFFFFFFFFFF DUP3 GT OR ISZERO PUSH2 0xAE3 JUMPI PUSH2 0xAE2 PUSH2 0xA8E JUMP JUMPDEST JUMPDEST DUP1 PUSH1 0x40 MSTORE POP POP POP JUMP JUMPDEST PUSH0 PUSH2 0xAF5 PUSH2 0x8D9 JUMP JUMPDEST SWAP1 POP PUSH2 0xB01 DUP3 DUP3 PUSH2 0xABB JUMP JUMPDEST SWAP2 SWAP1 POP JUMP JUMPDEST PUSH0 PUSH8 0xFFFFFFFFFFFFFFFF DUP3 GT ISZERO PUSH2 0xB20 JUMPI PUSH2 0xB1F PUSH2 0xA8E JUMP JUMPDEST JUMPDEST PUSH2 0xB29 DUP3 PUSH2 0x970 JUMP JUMPDEST SWAP1 POP PUSH1 0x20 DUP2 ADD SWAP1 POP SWAP2 SWAP1 POP JUMP JUMPDEST DUP3 DUP2 DUP4 CALLDATACOPY PUSH0 DUP4 DUP4 ADD MSTORE POP POP POP JUMP JUMPDEST PUSH0 PUSH2 0xB56 PUSH2 0xB51 DUP5 PUSH2 0xB06 JUMP JUMPDEST PUSH2 0xAEC JUMP JUMPDEST SWAP1 POP DUP3 DUP2 MSTORE PUSH1 0x20 DUP2 ADD DUP5 DUP5 DUP5 ADD GT ISZERO PUSH2 0xB72 JUMPI PUSH2 0xB71 PUSH2 0xA8A JUMP JUMPDEST JUMPDEST PUSH2 0xB7D DUP5 DUP3 DUP6 PUSH2 0xB36 JUMP JUMPDEST POP SWAP4 SWAP3 POP POP POP JUMP JUMPDEST PUSH0 DUP3 PUSH1 0x1F DUP4 ADD SLT PUSH2 0xB99 JUMPI PUSH2 0xB98 PUSH2 0xA86 JUMP JUMPDEST JUMPDEST DUP2 CALLDATALOAD PUSH2 0xBA9 DUP5 DUP3 PUSH1 0x20 DUP7 ADD PUSH2 0xB44 JUMP JUMPDEST SWAP2 POP POP SWAP3 SWAP2 POP POP JUMP JUMPDEST PUSH0 DUP1 PUSH1 0x40 DUP4 DUP6 SUB SLT ISZERO PUSH2 0xBC8 JUMPI PUSH2 0xBC7 PUSH2 0x8E2 JUMP JUMPDEST JUMPDEST PUSH0 DUP4 ADD CALLDATALOAD PUSH8 0xFFFFFFFFFFFFFFFF DUP2 GT ISZERO PUSH2 0xBE5 JUMPI PUSH2 0xBE4 PUSH2 0x8E6 JUMP JUMPDEST JUMPDEST PUSH2 0xBF1 DUP6 DUP3 DUP7 ADD PUSH2 0xB85 JUMP JUMPDEST SWAP3 POP POP PUSH1 0x20 PUSH2 0xC02 DUP6 DUP3 DUP7 ADD PUSH2 0x909 JUMP JUMPDEST SWAP2 POP POP SWAP3 POP SWAP3 SWAP1 POP JUMP JUMPDEST PUSH0 PUSH1 0x20 DUP3 ADD SWAP1 POP PUSH2 0xC1F PUSH0 DUP4 ADD DUP5 PUSH2 0x9B8 JUMP JUMPDEST SWAP3 SWAP2 POP POP JUMP JUMPDEST PUSH2 0xC2E DUP2 PUSH2 0x9E6 JUMP JUMPDEST DUP2 EQ PUSH2 0xC38 JUMPI PUSH0 DUP1 REVERT JUMPDEST POP JUMP JUMPDEST PUSH0 DUP2 CALLDATALOAD SWAP1 POP PUSH2 0xC49 DUP2 PUSH2 0xC25 JUMP JUMPDEST SWAP3 SWAP2 POP POP JUMP JUMPDEST PUSH0 DUP1 PUSH1 0x40 DUP4 DUP6 SUB SLT ISZERO PUSH2 0xC65 JUMPI PUSH2 0xC64 PUSH2 0x8E2 JUMP JUMPDEST JUMPDEST PUSH0 PUSH2 0xC72 DUP6 DUP3 DUP7 ADD PUSH2 0x909 JUMP JUMPDEST SWAP3 POP POP PUSH1 0x20 PUSH2 0xC83 DUP6 DUP3 DUP7 ADD PUSH2 0xC3B JUMP JUMPDEST SWAP2 POP POP SWAP3 POP SWAP3 SWAP1 POP JUMP JUMPDEST PUSH0 DUP2 SWAP1 POP SWAP2 SWAP1 POP JUMP JUMPDEST PUSH0 PUSH2 0xCB0 PUSH2 0xCAB PUSH2 0xCA6 DUP5 PUSH2 0x9C7 JUMP JUMPDEST PUSH2 0xC8D JUMP JUMPDEST PUSH2 0x9C7 JUMP JUMPDEST SWAP1 POP SWAP2 SWAP1 POP JUMP JUMPDEST PUSH0 PUSH2 0xCC1 DUP3 PUSH2 0xC96 JUMP JUMPDEST SWAP1 POP SWAP2 SWAP1 POP JUMP JUMPDEST PUSH0 PUSH2 0xCD2 DUP3 PUSH2 0xCB7 JUMP JUMPDEST SWAP1 POP SWAP2 SWAP1 POP JUMP JUMPDEST PUSH2 0xCE2 DUP2 PUSH2 0xCC8 JUMP JUMPDEST DUP3 MSTORE POP POP JUMP JUMPDEST PUSH0 PUSH1 0x20 DUP3 ADD SWAP1 POP PUSH2 0xCFB PUSH0 DUP4 ADD DUP5 PUSH2 0xCD9 JUMP JUMPDEST SWAP3 SWAP2 POP POP JUMP JUMPDEST PUSH32 0x4E487B7100000000000000000000000000000000000000000000000000000000 PUSH0 MSTORE PUSH1 0x22 PUSH1 0x4 MSTORE PUSH1 0x24 PUSH0 REVERT JUMPDEST PUSH0 PUSH1 0x2 DUP3 DIV SWAP1 POP PUSH1 0x1 DUP3 AND DUP1 PUSH2 0xD45 JUMPI PUSH1 0x7F DUP3 AND SWAP2 POP JUMPDEST PUSH1 0x20 DUP3 LT DUP2 SUB PUSH2 0xD58 JUMPI PUSH2 0xD57 PUSH2 0xD01 JUMP JUMPDEST JUMPDEST POP SWAP2 SWAP1 POP JUMP JUMPDEST PUSH0 DUP2 SWAP1 POP DUP2 PUSH0 MSTORE PUSH1 0x20 PUSH0 KECCAK256 SWAP1 POP SWAP2 SWAP1 POP JUMP JUMPDEST PUSH0 PUSH1 0x20 PUSH1 0x1F DUP4 ADD DIV SWAP1 POP SWAP2 SWAP1 POP JUMP JUMPDEST PUSH0 DUP3 DUP3 SHL SWAP1 POP SWAP3 SWAP2 POP POP JUMP JUMPDEST PUSH0 PUSH1 0x8 DUP4 MUL PUSH2 0xDBA PUSH32 0xFFFFFFFFFFFFFFFFFFFFFFFFFFFFFFFFFFFFFFFFFFFFFFFFFFFFFFFFFFFFFFFF DUP3 PUSH2 0xD7F JUMP JUMPDEST PUSH2 0xDC4 DUP7 DUP4 PUSH2 0xD7F JUMP JUMPDEST SWAP6 POP DUP1 NOT DUP5 AND SWAP4 POP DUP1 DUP7 AND DUP5 OR SWAP3 POP POP POP SWAP4 SWAP3 POP POP POP JUMP JUMPDEST PUSH0 PUSH2 0xDF6 PUSH2 0xDF1 PUSH2 0xDEC DUP5 PUSH2 0x8EA JUMP JUMPDEST PUSH2 0xC8D JUMP JUMPDEST PUSH2 0x8EA JUMP JUMPDEST SWAP1 POP SWAP2 SWAP1 POP JUMP JUMPDEST PUSH0 DUP2 SWAP1 POP SWAP2 SWAP1 POP JUMP JUMPDEST PUSH2 0xE0F DUP4 PUSH2 0xDDC JUMP JUMPDEST PUSH2 0xE23 PUSH2 0xE1B DUP3 PUSH2 0xDFD JUMP JUMPDEST DUP5 DUP5 SLOAD PUSH2 0xD8B JUMP JUMPDEST DUP3 SSTORE POP POP POP POP JUMP JUMPDEST PUSH0 SWAP1 JUMP JUMPDEST PUSH2 0xE37 PUSH2 0xE2B JUMP JUMPDEST PUSH2 0xE42 DUP2 DUP5 DUP5 PUSH2 0xE06 JUMP JUMPDEST POP POP POP JUMP JUMPDEST JUMPDEST DUP2 DUP2 LT ISZERO PUSH2 0xE65 JUMPI PUSH2 0xE5A PUSH0 DUP3 PUSH2 0xE2F JUMP JUMPDEST PUSH1 0x1 DUP2 ADD SWAP1 POP PUSH2 0xE48 JUMP JUMPDEST POP POP JUMP JUMPDEST PUSH1 0x1F DUP3 GT ISZERO PUSH2 0xEAA JUMPI PUSH2 0xE7B DUP2 PUSH2 0xD5E JUMP JUMPDEST PUSH2 0xE84 DUP5 PUSH2 0xD70 JUMP JUMPDEST DUP2 ADD PUSH1 0x20 DUP6 LT ISZERO PUSH2 0xE93 JUMPI DUP2 SWAP1 POP JUMPDEST PUSH2 0xEA7 PUSH2 0xE9F DUP6 PUSH2 0xD70 JUMP JUMPDEST DUP4 ADD DUP3 PUSH2 0xE47 JUMP JUMPDEST POP POP JUMPDEST POP POP POP JUMP JUMPDEST PUSH0 DUP3 DUP3 SHR SWAP1 POP SWAP3 SWAP2 POP POP JUMP JUMPDEST PUSH0 PUSH2 0xECA PUSH0 NOT DUP5 PUSH1 0x8 MUL PUSH2 0xEAF JUMP JUMPDEST NOT DUP1 DUP4 AND SWAP2 POP POP SWAP3 SWAP2 POP POP JUMP JUMPDEST PUSH0 PUSH2 0xEE2 DUP4 DUP4 PUSH2 0xEBB JUMP JUMPDEST SWAP2 POP DUP3 PUSH1 0x2 MUL DUP3 OR SWAP1 POP SWAP3 SWAP2 POP POP JUMP JUMPDEST PUSH2 0xEFB DUP3 PUSH2 0x948 JUMP JUMPDEST PUSH8 0xFFFFFFFFFFFFFFFF DUP2 GT ISZERO PUSH2 0xF14 JUMPI PUSH2 0xF13 PUSH2 0xA8E JUMP JUMPDEST JUMPDEST PUSH2 0xF1E DUP3 SLOAD PUSH2 0xD2E JUMP JUMPDEST PUSH2 0xF29 DUP3 DUP3 DUP6 PUSH2 0xE69 JUMP JUMPDEST PUSH0 PUSH1 0x20 SWAP1 POP PUSH1 0x1F DUP4 GT PUSH1 0x1 DUP2 EQ PUSH2 0xF5A JUMPI PUSH0 DUP5 ISZERO PUSH2 0xF48 JUMPI DUP3 DUP8 ADD MLOAD SWAP1 POP JUMPDEST PUSH2 0xF52 DUP6 DUP3 PUSH2 0xED7 JUMP JUMPDEST DUP7 SSTORE POP PUSH2 0xFB9 JUMP JUMPDEST PUSH1 0x1F NOT DUP5 AND PUSH2 0xF68 DUP7 PUSH2 0xD5E JUMP JUMPDEST PUSH0 JUMPDEST DUP3 DUP2 LT ISZERO PUSH2 0xF8F JUMPI DUP5 DUP10 ADD MLOAD DUP3 SSTORE PUSH1 0x1 DUP3 ADD SWAP2 POP PUSH1 0x20 DUP6 ADD SWAP5 POP PUSH1 0x20 DUP2 ADD SWAP1 POP PUSH2 0xF6A JUMP JUMPDEST DUP7 DUP4 LT ISZERO PUSH2 0xFAC JUMPI DUP5 DUP10 ADD MLOAD PUSH2 0xFA8 PUSH1 0x1F DUP10 AND DUP3 PUSH2 0xEBB JUMP JUMPDEST DUP4 SSTORE POP JUMPDEST PUSH1 0x1 PUSH1 0x2 DUP9 MUL ADD DUP9 SSTORE POP POP POP JUMPDEST POP POP POP POP POP POP JUMP JUMPDEST PUSH0 PUSH1 0x80 DUP3 ADD SWAP1 POP PUSH2 0xFD4 PUSH0 DUP4 ADD DUP8 PUSH2 0x9B8 JUMP JUMPDEST PUSH2 0xFE1 PUSH1 0x20 DUP4 ADD DUP7 PUSH2 0x9F7 JUMP JUMPDEST DUP2 DUP2 SUB PUSH1 0x40 DUP4 ADD MSTORE PUSH2 0xFF3 DUP2 DUP6 PUSH2 0x980 JUMP JUMPDEST SWAP1 POP PUSH2 0x1002 PUSH1 0x60 DUP4 ADD DUP5 PUSH2 0x9B8 JUMP JUMPDEST SWAP6 SWAP5 POP POP POP POP POP JUMP JUMPDEST PUSH32 0x4E487B7100000000000000000000000000000000000000000000000000000000 PUSH0 MSTORE PUSH1 0x11 PUSH1 0x4 MSTORE PUSH1 0x24 PUSH0 REVERT JUMPDEST PUSH0 PUSH2 0x1042 DUP3 PUSH2 0x8EA JUMP JUMPDEST SWAP2 POP PUSH32 0xFFFFFFFFFFFFFFFFFFFFFFFFFFFFFFFFFFFFFFFFFFFFFFFFFFFFFFFFFFFFFFFF DUP3 SUB PUSH2 0x1074 JUMPI PUSH2 0x1073 PUSH2 0x100B JUMP JUMPDEST JUMPDEST PUSH1 0x1 DUP3 ADD SWAP1 POP SWAP2 SWAP1 POP JUMP JUMPDEST PUSH32 0x4F6E6C7920636C69656E74000000000000000000000000000000000000000000 PUSH0 DUP3 ADD MSTORE POP JUMP JUMPDEST PUSH0 PUSH2 0x10B3 PUSH1 0xB DUP4 PUSH2 0x952 JUMP JUMPDEST SWAP2 POP PUSH2 0x10BE DUP3 PUSH2 0x107F JUMP JUMPDEST PUSH1 0x20 DUP3 ADD SWAP1 POP SWAP2 SWAP1 POP JUMP JUMPDEST PUSH0 PUSH1 0x20 DUP3 ADD SWAP1 POP DUP2 DUP2 SUB PUSH0 DUP4 ADD MSTORE PUSH2 0x10E0 DUP2 PUSH2 0x10A7 JUMP JUMPDEST SWAP1 POP SWAP2 SWAP1 POP JUMP JUMPDEST PUSH32 0x4E6F742061737369676E65640000000000000000000000000000000000000000 PUSH0 DUP3 ADD MSTORE POP JUMP JUMPDEST PUSH0 PUSH2 0x111B PUSH1 0xC DUP4 PUSH2 0x952 JUMP JUMPDEST SWAP2 POP PUSH2 0x1126 DUP3 PUSH2 0x10E7 JUMP JUMPDEST PUSH1 0x20 DUP3 ADD SWAP1 POP SWAP2 SWAP1 POP JUMP JUMPDEST PUSH0 PUSH1 0x20 DUP3 ADD SWAP1 POP DUP2 DUP2 SUB PUSH0 DUP4 ADD MSTORE PUSH2 0x1148 DUP2 PUSH2 0x110F JUMP JUMPDEST SWAP1 POP SWAP2 SWAP1 POP JUMP JUMPDEST PUSH32 0x416C726561647920636F6D706C65746564000000000000000000000000000000 PUSH0 DUP3 ADD MSTORE POP JUMP JUMPDEST PUSH0 PUSH2 0x1183 PUSH1 0x11 DUP4 PUSH2 0x952 JUMP JUMPDEST SWAP2 POP PUSH2 0x118E DUP3 PUSH2 0x114F JUMP JUMPDEST PUSH1 0x20 DUP3 ADD SWAP1 POP SWAP2 SWAP1 POP JUMP JUMPDEST PUSH0 PUSH1 0x20 DUP3 ADD SWAP1 POP DUP2 DUP2 SUB PUSH0 DUP4 ADD MSTORE PUSH2 0x11B0 DUP2 PUSH2 0x1177 JUMP JUMPDEST SWAP1 POP SWAP2 SWAP1 POP JUMP JUMPDEST PUSH32 0x416C72656164792061737369676E656400000000000000000000000000000000 PUSH0 DUP3 ADD MSTORE POP JUMP JUMPDEST PUSH0 PUSH2 0x11EB PUSH1 0x10 DUP4 PUSH2 0x952 JUMP JUMPDEST SWAP2 POP PUSH2 0x11F6 DUP3 PUSH2 0x11B7 JUMP JUMPDEST PUSH1 0x20 DUP3 ADD SWAP1 POP SWAP2 SWAP1 POP JUMP JUMPDEST PUSH0 PUSH1 0x20 DUP3 ADD SWAP1 POP DUP2 DUP2 SUB PUSH0 DUP4 ADD MSTORE PUSH2 0x1218 DUP2 PUSH2 0x11DF JUMP JUMPDEST SWAP1 POP SWAP2 SWAP1 POP JUMP JUMPDEST PUSH32 0x496E636F727265637420616D6F756E7400000000000000000000000000000000 PUSH0 DUP3 ADD MSTORE POP JUMP JUMPDEST PUSH0 PUSH2 0x1253 PUSH1 0x10 DUP4 PUSH2 0x952 JUMP JUMPDEST SWAP2 POP PUSH2 0x125E DUP3 PUSH2 0x121F JUMP JUMPDEST PUSH1 0x20 DUP3 ADD SWAP1 POP SWAP2 SWAP1 POP JUMP JUMPDEST PUSH0 PUSH1 0x20 DUP3 ADD SWAP1 POP DUP2 DUP2 SUB PUSH0 DUP4 ADD MSTORE PUSH2 0x1280 DUP2 PUSH2 0x1247 JUMP JUMPDEST SWAP1 POP SWAP2 SWAP1 POP JUMP JUMPDEST PUSH0 PUSH1 0x40 DUP3 ADD SWAP1 POP PUSH2 0x129A PUSH0 DUP4 ADD DUP6 PUSH2 0x9B8 JUMP JUMPDEST PUSH2 0x12A7 PUSH1 0x20 DUP4 ADD DUP5 PUSH2 0x9F7 JUMP JUMPDEST SWAP4 SWAP3 POP POP POP JUMP INVALID LOG2 PUSH5 0x6970667358 0x22 SLT KECCAK256 SWAP4 0x2D CALLVALUE INVALID 0xCD 0xB5 DUP3 PUSH32 0x104FAA55F8F94E730AD658AE0A7E0AD5379B1D2E67BCDA6764736F6C63430008 BYTE STOP CALLER "
		},
		"gasEstimates": {
			"creation": {
				"codeDepositCost": "967200",
				"executionCost": "infinite",
				"totalCost": "infinite"
			},
			"external": {
				"assignFreelancer(uint256,address)": "infinite",
				"createJob(string,uint256)": "infinite",
				"escrow()": "infinite",
				"jobs(uint256)": "infinite",
				"markJobCompleted(uint256)": "infinite",
				"nextJobId()": "2468"
			}
		},
		"methodIdentifiers": {
			"assignFreelancer(uint256,address)": "c949756c",
			"createJob(string,uint256)": "5713b2b6",
			"escrow()": "e2fdcc17",
			"jobs(uint256)": "180aedf3",
			"markJobCompleted(uint256)": "5c1615f3",
			"nextJobId()": "b0c2aa5e"
		}
	},
	"abi": [
		{
			"inputs": [
				{
					"internalType": "address",
					"name": "escrowAddress",
					"type": "address"
				}
			],
			"stateMutability": "nonpayable",
			"type": "constructor"
		},
		{
			"anonymous": false,
			"inputs": [
				{
					"indexed": false,
					"internalType": "uint256",
					"name": "jobId",
					"type": "uint256"
				},
				{
					"indexed": false,
					"internalType": "address",
					"name": "freelancer",
					"type": "address"
				}
			],
			"name": "JobAssigned",
			"type": "event"
		},
		{
			"anonymous": false,
			"inputs": [
				{
					"indexed": false,
					"internalType": "uint256",
					"name": "jobId",
					"type": "uint256"
				}
			],
			"name": "JobCompleted",
			"type": "event"
		},
		{
			"anonymous": false,
			"inputs": [
				{
					"indexed": false,
					"internalType": "uint256",
					"name": "jobId",
					"type": "uint256"
				},
				{
					"indexed": false,
					"internalType": "address",
					"name": "client",
					"type": "address"
				},
				{
					"indexed": false,
					"internalType": "string",
					"name": "description",
					"type": "string"
				},
				{
					"indexed": false,
					"internalType": "uint256",
					"name": "budget",
					"type": "uint256"
				}
			],
			"name": "JobCreated",
			"type": "event"
		},
		{
			"inputs": [
				{
					"internalType": "uint256",
					"name": "jobId",
					"type": "uint256"
				},
				{
					"internalType": "address",
					"name": "freelancer",
					"type": "address"
				}
			],
			"name": "assignFreelancer",
			"outputs": [],
			"stateMutability": "payable",
			"type": "function"
		},
		{
			"inputs": [
				{
					"internalType": "string",
					"name": "description",
					"type": "string"
				},
				{
					"internalType": "uint256",
					"name": "budget",
					"type": "uint256"
				}
			],
			"name": "createJob",
			"outputs": [],
			"stateMutability": "nonpayable",
			"type": "function"
		},
		{
			"inputs": [],
			"name": "escrow",
			"outputs": [
				{
					"internalType": "contract EscrowContract",
					"name": "",
					"type": "address"
				}
			],
			"stateMutability": "view",
			"type": "function"
		},
		{
			"inputs": [
				{
					"internalType": "uint256",
					"name": "",
					"type": "uint256"
				}
			],
			"name": "jobs",
			"outputs": [
				{
					"internalType": "string",
					"name": "description",
					"type": "string"
				},
				{
					"internalType": "uint256",
					"name": "budget",
					"type": "uint256"
				},
				{
					"internalType": "address",
					"name": "client",
					"type": "address"
				},
				{
					"internalType": "address",
					"name": "freelancer",
					"type": "address"
				},
				{
					"internalType": "bool",
					"name": "isAssigned",
					"type": "bool"
				},
				{
					"internalType": "bool",
					"name": "isCompleted",
					"type": "bool"
				}
			],
			"stateMutability": "view",
			"type": "function"
		},
		{
			"inputs": [
				{
					"internalType": "uint256",
					"name": "jobId",
					"type": "uint256"
				}
			],
			"name": "markJobCompleted",
			"outputs": [],
			"stateMutability": "nonpayable",
			"type": "function"
		},
		{
			"inputs": [],
			"name": "nextJobId",
			"outputs": [
				{
					"internalType": "uint256",
					"name": "",
					"type": "uint256"
				}
			],
			"stateMutability": "view",
			"type": "function"
		}
	]
}